{
  "_format": "hh-sol-artifact-1",
  "contractName": "MerkleDrop",
  "sourceName": "contracts/MerkleDrop.sol",
  "abi": [
    {
      "inputs": [
        {
          "internalType": "contract IERC20",
          "name": "_token",
          "type": "address"
        }
      ],
      "stateMutability": "nonpayable",
      "type": "constructor"
    },
    {
      "anonymous": false,
      "inputs": [
        {
          "indexed": false,
          "internalType": "address",
          "name": "claimant",
          "type": "address"
        },
        {
          "indexed": false,
          "internalType": "uint256",
          "name": "tranche",
          "type": "uint256"
        },
        {
          "indexed": false,
          "internalType": "uint256",
          "name": "balance",
          "type": "uint256"
        }
      ],
      "name": "Claimed",
      "type": "event"
    },
    {
      "anonymous": false,
      "inputs": [
        {
          "indexed": true,
          "internalType": "address",
          "name": "_address",
          "type": "address"
        }
      ],
      "name": "FunderAdded",
      "type": "event"
    },
    {
      "anonymous": false,
      "inputs": [
        {
          "indexed": true,
          "internalType": "address",
          "name": "_address",
          "type": "address"
        }
      ],
      "name": "FunderRemoved",
      "type": "event"
    },
    {
      "anonymous": false,
      "inputs": [
        {
          "indexed": true,
          "internalType": "address",
          "name": "previousOwner",
          "type": "address"
        },
        {
          "indexed": true,
          "internalType": "address",
          "name": "newOwner",
          "type": "address"
        }
      ],
      "name": "OwnershipTransferred",
      "type": "event"
    },
    {
      "anonymous": false,
      "inputs": [
        {
          "indexed": false,
          "internalType": "uint256",
          "name": "tranche",
          "type": "uint256"
        },
        {
          "indexed": false,
          "internalType": "bytes32",
          "name": "merkleRoot",
          "type": "bytes32"
        },
        {
          "indexed": false,
          "internalType": "uint256",
          "name": "totalAmount",
          "type": "uint256"
        }
      ],
      "name": "TrancheAdded",
      "type": "event"
    },
    {
      "anonymous": false,
      "inputs": [
        {
          "indexed": false,
          "internalType": "uint256",
          "name": "tranche",
          "type": "uint256"
        }
      ],
      "name": "TrancheExpired",
      "type": "event"
    },
    {
      "inputs": [
        {
          "internalType": "address",
          "name": "_address",
          "type": "address"
        }
      ],
      "name": "addFunder",
      "outputs": [],
      "stateMutability": "nonpayable",
      "type": "function"
    },
    {
      "inputs": [
        {
          "internalType": "address",
          "name": "_claimer",
          "type": "address"
        },
        {
          "internalType": "uint256",
          "name": "_tranche",
          "type": "uint256"
        },
        {
          "internalType": "uint256",
          "name": "_balance",
          "type": "uint256"
        },
        {
          "internalType": "bytes32[]",
          "name": "_merkleProof",
          "type": "bytes32[]"
        }
      ],
      "name": "claimTranche",
      "outputs": [],
      "stateMutability": "nonpayable",
      "type": "function"
    },
    {
      "inputs": [
        {
          "internalType": "uint256",
          "name": "_trancheId",
          "type": "uint256"
        }
      ],
      "name": "expireTranche",
      "outputs": [],
      "stateMutability": "nonpayable",
      "type": "function"
    },
    {
      "inputs": [
        {
          "internalType": "address",
          "name": "",
          "type": "address"
        }
      ],
      "name": "funders",
      "outputs": [
        {
          "internalType": "bool",
          "name": "",
          "type": "bool"
        }
      ],
      "stateMutability": "view",
      "type": "function"
    },
    {
      "inputs": [
        {
          "internalType": "address",
          "name": "_user",
          "type": "address"
        },
        {
          "internalType": "uint256",
          "name": "_tranche",
          "type": "uint256"
        }
      ],
      "name": "hasClaimed",
      "outputs": [
        {
          "internalType": "bool",
          "name": "",
          "type": "bool"
        }
      ],
      "stateMutability": "view",
      "type": "function"
    },
    {
      "inputs": [
        {
          "internalType": "uint256",
          "name": "",
          "type": "uint256"
        }
      ],
      "name": "merkleRoots",
      "outputs": [
        {
          "internalType": "bytes32",
          "name": "",
          "type": "bytes32"
        }
      ],
      "stateMutability": "view",
      "type": "function"
    },
    {
      "inputs": [],
      "name": "owner",
      "outputs": [
        {
          "internalType": "address",
          "name": "",
          "type": "address"
        }
      ],
      "stateMutability": "view",
      "type": "function"
    },
    {
      "inputs": [
        {
          "internalType": "address",
          "name": "_address",
          "type": "address"
        }
      ],
      "name": "removeFunder",
      "outputs": [],
      "stateMutability": "nonpayable",
      "type": "function"
    },
    {
      "inputs": [],
      "name": "renounceOwnership",
      "outputs": [],
      "stateMutability": "nonpayable",
      "type": "function"
    },
    {
      "inputs": [
        {
          "internalType": "bytes32",
          "name": "_merkleRoot",
          "type": "bytes32"
        },
        {
          "internalType": "uint256",
          "name": "_totalAllocation",
          "type": "uint256"
        }
      ],
      "name": "seedNewAllocations",
      "outputs": [
        {
          "internalType": "uint256",
          "name": "trancheId",
          "type": "uint256"
        }
      ],
      "stateMutability": "nonpayable",
      "type": "function"
    },
    {
      "inputs": [],
      "name": "token",
      "outputs": [
        {
          "internalType": "contract IERC20",
          "name": "",
          "type": "address"
        }
      ],
      "stateMutability": "view",
      "type": "function"
    },
    {
      "inputs": [
        {
          "internalType": "address",
          "name": "newOwner",
          "type": "address"
        }
      ],
      "name": "transferOwnership",
      "outputs": [],
      "stateMutability": "nonpayable",
      "type": "function"
    },
    {
      "inputs": [
        {
          "internalType": "address",
          "name": "_claimer",
          "type": "address"
        },
        {
          "internalType": "uint256",
          "name": "_tranche",
          "type": "uint256"
        },
        {
          "internalType": "uint256",
          "name": "_balance",
          "type": "uint256"
        },
        {
          "internalType": "bytes32[]",
          "name": "_merkleProof",
          "type": "bytes32[]"
        }
      ],
      "name": "verifyClaim",
      "outputs": [
        {
          "internalType": "bool",
          "name": "valid",
          "type": "bool"
        }
      ],
      "stateMutability": "view",
      "type": "function"
    }
  ],
  "bytecode": "0x60a060405234801561001057600080fd5b5060405161166b38038061166b83398101604081905261002f91610085565b600080546001600160a01b031916339081178255604051909182917f8be0079c531659141344cd1fd0a4f28419497f9722a3daafe3b4186f6b6457e0908290a35060601b6001600160601b0319166080526100b5565b60006020828403121561009757600080fd5b81516001600160a01b03811681146100ae57600080fd5b9392505050565b60805160601c61158a6100e160003960008181610234015281816103d80152610bc0015261158a6000f3fe608060405234801561001057600080fd5b50600436106100ea5760003560e01c8063c63e8d1a1161008c578063dcd18dd411610066578063dcd18dd4146101f6578063eb0d07f514610209578063f2fde38b1461021c578063fc0c546a1461022f57600080fd5b8063c63e8d1a146101bd578063cd54e72c146101d0578063d5efd20a146101e357600080fd5b8063715018a6116100c8578063715018a61461015d57806371c5ecb1146101655780638da5cb5b14610185578063b2931096146101aa57600080fd5b8063031b3677146100ef5780631bbe9d8c1461012757806365ef53b11461013c575b600080fd5b6101126100fd366004611170565b60036020526000908152604090205460ff1681565b60405190151581526020015b60405180910390f35b61013a610135366004611170565b610256565b005b61014f61014a36600461134a565b610379565b60405190815260200161011e565b61013a61047c565b61014f61017336600461136c565b60016020526000908152604090205481565b6000546001600160a01b03165b6040516001600160a01b03909116815260200161011e565b6101126101b836600461129d565b6104f0565b61013a6101cb36600461118b565b61051b565b61013a6101de3660046112c7565b61066a565b61013a6101f136600461136c565b610686565b61013a610204366004611170565b610726565b6101126102173660046112c7565b610849565b61013a61022a366004611170565b610860565b6101927f000000000000000000000000000000000000000000000000000000000000000081565b6000546001600160a01b031633146102895760405162461bcd60e51b8152600401610280906113d4565b60405180910390fd5b6001600160a01b0381166102d15760405162461bcd60e51b815260206004820152600f60248201526e41646472657373206973207a65726f60881b6044820152606401610280565b6001600160a01b03811660009081526003602052604090205460ff161561032d5760405162461bcd60e51b815260206004820152601060248201526f20b63932b0b23c903090333ab73232b960811b6044820152606401610280565b6001600160a01b038116600081815260036020526040808220805460ff19166001179055517f0c48d651d88968f843204baf13aa11cd1a590e611c6dcadc7ed4daab1f98462a9190a250565b3360009081526003602052604081205460ff166103cb5760405162461bcd60e51b815260206004820152601060248201526f26bab9ba103132903090333ab73232b960811b6044820152606401610280565b6104006001600160a01b037f00000000000000000000000000000000000000000000000000000000000000001633308561094a565b6004549050826001600083815260200190815260200160002081905550600160046000828254610430919061145e565b909155505060408051828152602081018590529081018390527f5c8770684b8f82e9ade880fb05ccfb53c969170cd40e9746a3703f241c9023ec9060600160405180910390a192915050565b6000546001600160a01b031633146104a65760405162461bcd60e51b8152600401610280906113d4565b600080546040516001600160a01b03909116907f8be0079c531659141344cd1fd0a4f28419497f9722a3daafe3b4186f6b6457e0908390a3600080546001600160a01b0319169055565b6001600160a01b038216600090815260026020526040812061051290836109b5565b90505b92915050565b82518061056a5760405162461bcd60e51b815260206004820152601860248201527f4d75737420636c61696d20736f6d65207472616e6368657300000000000000006044820152606401610280565b82518114801561057a5750815181145b6105bb5760405162461bcd60e51b81526020600482015260126024820152714d69736d61746368696e6720696e7075747360701b6044820152606401610280565b6000805b828110156106575761061e878783815181106105dd576105dd611528565b60200260200101518784815181106105f7576105f7611528565b602002602001015187858151811061061157610611611528565b6020026020010151610a28565b84818151811061063057610630611528565b602002602001015182610643919061145e565b91508061064f816114cd565b9150506105bf565b506106628682610bad565b505050505050565b61067684848484610a28565b6106808483610bad565b50505050565b3360009081526003602052604090205460ff166106d85760405162461bcd60e51b815260206004820152601060248201526f26bab9ba103132903090333ab73232b960811b6044820152606401610280565b60008181526001602052604080822091909155517fcc071cbd9ae50a4c78d1153b76bd2d46ba8d4c7662842718ec3de1d67a144daf9061071b9083815260200190565b60405180910390a150565b6000546001600160a01b031633146107505760405162461bcd60e51b8152600401610280906113d4565b6001600160a01b0381166107985760405162461bcd60e51b815260206004820152600f60248201526e41646472657373206973207a65726f60881b6044820152606401610280565b6001600160a01b03811660009081526003602052604090205460ff166108005760405162461bcd60e51b815260206004820152601760248201527f41646472657373206973206e6f7420612066756e6465720000000000000000006044820152606401610280565b6001600160a01b038116600081815260036020526040808220805460ff19169055517f423b2da7eebe1997af6d3d8f0c00fd04de1d323a87cd69152dad613731eb23259190a250565b600061085785858585610c59565b95945050505050565b6000546001600160a01b0316331461088a5760405162461bcd60e51b8152600401610280906113d4565b6001600160a01b0381166108ef5760405162461bcd60e51b815260206004820152602660248201527f4f776e61626c653a206e6577206f776e657220697320746865207a65726f206160448201526564647265737360d01b6064820152608401610280565b600080546040516001600160a01b03808516939216917f8be0079c531659141344cd1fd0a4f28419497f9722a3daafe3b4186f6b6457e091a3600080546001600160a01b0319166001600160a01b0392909216919091179055565b6040516001600160a01b03808516602483015283166044820152606481018290526106809085906323b872dd60e01b906084015b60408051601f198184030181529190526020810180516001600160e01b03166001600160e01b031990931692909217909152610cc4565b6000806109c461010084611476565b845490915081106109d9576000915050610515565b60006109e7610100856114e8565b9050808560000183815481106109ff576109ff611528565b9060005260206000200154901c600116600114610a1d576000610857565b600195945050505050565b6004548310610a795760405162461bcd60e51b815260206004820152601f60248201527f5472616e6368652063616e6e6f7420626520696e2074686520667574757265006044820152606401610280565b6001600160a01b0384166000908152600260205260409020610a9b90846109b5565b15610ae85760405162461bcd60e51b815260206004820152601b60248201527f416464726573732068617320616c726561647920636c61696d656400000000006044820152606401610280565b610af484848484610c59565b610b395760405162461bcd60e51b815260206004820152601660248201527524b731b7b93932b1ba1036b2b935b63290383937b7b360511b6044820152606401610280565b6001600160a01b0384166000908152600260205260409020610b5d90846001610d9b565b604080516001600160a01b0386168152602081018590529081018390527f987d620f307ff6b94d58743cb7a7509f24071586a77759b77c2d4e29f75a2f9a9060600160405180910390a150505050565b8015610beb57610be76001600160a01b037f0000000000000000000000000000000000000000000000000000000000000000168383610e89565b5050565b60405162461bcd60e51b815260206004820152603d60248201527f4e6f2062616c616e636520776f756c64206265207472616e736665727265642060448201527f2d206e6f7420676f696e6720746f20776173746520796f7572206761730000006064820152608401610280565b6040516bffffffffffffffffffffffff19606086901b166020820152603481018390526000908190605401604051602081830303815290604052805190602001209050610cba83600160008881526020019081526020016000205483610eb9565b9695505050505050565b6000610d19826040518060400160405280602081526020017f5361666545524332303a206c6f772d6c6576656c2063616c6c206661696c6564815250856001600160a01b0316610f6a9092919063ffffffff16565b805190915015610d965780806020019051810190610d379190611328565b610d965760405162461bcd60e51b815260206004820152602a60248201527f5361666545524332303a204552433230206f7065726174696f6e20646964206e6044820152691bdd081cdd58d8d9595960b21b6064820152608401610280565b505050565b6000610da961010084611476565b84549091508110610e05578354600090610dc3908361148a565b610dce90600161145e565b905060005b81811015610e025785546001810187556000878152602081209091015580610dfa816114cd565b915050610dd3565b50505b6000610e13610100856114e8565b90506000816001901b199050600081876000018581548110610e3757610e37611528565b90600052602060002001541690508285610e52576000610e55565b60015b60ff16901b9150818117876000018581548110610e7457610e74611528565b60009182526020909120015550505050505050565b6040516001600160a01b038316602482015260448101829052610d9690849063a9059cbb60e01b9060640161097e565b600081815b8551811015610f5d576000868281518110610edb57610edb611528565b60200260200101519050808311610f1d576040805160208101859052908101829052606001604051602081830303815290604052805190602001209250610f4a565b60408051602081018390529081018490526060016040516020818303038152906040528051906020012092505b5080610f55816114cd565b915050610ebe565b50831490505b9392505050565b6060610f798484600085610f81565b949350505050565b606082471015610fe25760405162461bcd60e51b815260206004820152602660248201527f416464726573733a20696e73756666696369656e742062616c616e636520666f6044820152651c8818d85b1b60d21b6064820152608401610280565b843b6110305760405162461bcd60e51b815260206004820152601d60248201527f416464726573733a2063616c6c20746f206e6f6e2d636f6e74726163740000006044820152606401610280565b600080866001600160a01b0316858760405161104c9190611385565b60006040518083038185875af1925050503d8060008114611089576040519150601f19603f3d011682016040523d82523d6000602084013e61108e565b606091505b509150915061109e8282866110a9565b979650505050505050565b606083156110b8575081610f63565b8251156110c85782518084602001fd5b8160405162461bcd60e51b815260040161028091906113a1565b80356001600160a01b03811681146110f957600080fd5b919050565b600082601f83011261110f57600080fd5b8135602061112461111f8361143a565b611409565b80838252828201915082860187848660051b890101111561114457600080fd5b60005b8581101561116357813584529284019290840190600101611147565b5090979650505050505050565b60006020828403121561118257600080fd5b610512826110e2565b600080600080608085870312156111a157600080fd5b6111aa856110e2565b935060208086013567ffffffffffffffff808211156111c857600080fd5b6111d489838a016110fe565b955060408801359150808211156111ea57600080fd5b6111f689838a016110fe565b9450606088013591508082111561120c57600080fd5b818801915088601f83011261122057600080fd5b813561122e61111f8261143a565b8082825285820191508585018c878560051b880101111561124e57600080fd5b60005b848110156112895781358681111561126857600080fd5b6112768f8a838b01016110fe565b8552509287019290870190600101611251565b505080965050505050505092959194509250565b600080604083850312156112b057600080fd5b6112b9836110e2565b946020939093013593505050565b600080600080608085870312156112dd57600080fd5b6112e6856110e2565b93506020850135925060408501359150606085013567ffffffffffffffff81111561131057600080fd5b61131c878288016110fe565b91505092959194509250565b60006020828403121561133a57600080fd5b81518015158114610f6357600080fd5b6000806040838503121561135d57600080fd5b50508035926020909101359150565b60006020828403121561137e57600080fd5b5035919050565b600082516113978184602087016114a1565b9190910192915050565b60208152600082518060208401526113c08160408501602087016114a1565b601f01601f19169190910160400192915050565b6020808252818101527f4f776e61626c653a2063616c6c6572206973206e6f7420746865206f776e6572604082015260600190565b604051601f8201601f1916810167ffffffffffffffff811182821017156114325761143261153e565b604052919050565b600067ffffffffffffffff8211156114545761145461153e565b5060051b60200190565b60008219821115611471576114716114fc565b500190565b60008261148557611485611512565b500490565b60008282101561149c5761149c6114fc565b500390565b60005b838110156114bc5781810151838201526020016114a4565b838111156106805750506000910152565b60006000198214156114e1576114e16114fc565b5060010190565b6000826114f7576114f7611512565b500690565b634e487b7160e01b600052601160045260246000fd5b634e487b7160e01b600052601260045260246000fd5b634e487b7160e01b600052603260045260246000fd5b634e487b7160e01b600052604160045260246000fdfea2646970667358221220a4f02c1fccf7b40537ec71311fda7b4c0166caef75e0227076f0fbc2e99d728d64736f6c63430008070033",
  "linkReferences": {},
  "deployedLinkReferences": {}
}