{
  "_format": "hh-sol-artifact-1",
  "contractName": "MerkleDropTranches",
  "sourceName": "contracts/MerkleDropTranches.sol",
  "abi": [
    {
      "anonymous": false,
      "inputs": [
        {
          "indexed": false,
          "internalType": "address",
          "name": "merkleDrop",
          "type": "address"
        }
      ],
      "name": "Register",
      "type": "event"
    },
    {
      "anonymous": false,
      "inputs": [
        {
          "indexed": true,
          "internalType": "address",
          "name": "merkleDrop",
          "type": "address"
        },
        {
          "indexed": false,
          "internalType": "uint256",
          "name": "tranche",
          "type": "uint256"
        },
        {
          "indexed": false,
          "internalType": "string",
          "name": "uri",
          "type": "string"
        }
      ],
      "name": "SetTrancheURI",
      "type": "event"
    },
    {
      "inputs": [
        {
          "internalType": "address",
          "name": "_merkleDrop",
          "type": "address"
        },
        {
          "internalType": "uint256",
          "name": "_tranche",
          "type": "uint256"
        },
        {
          "internalType": "string",
          "name": "_uri",
          "type": "string"
        }
      ],
      "name": "addTrancheURI",
      "outputs": [],
      "stateMutability": "nonpayable",
      "type": "function"
    },
    {
      "inputs": [
        {
          "internalType": "address",
          "name": "_merkleDrop",
          "type": "address"
        }
      ],
      "name": "register",
      "outputs": [],
      "stateMutability": "nonpayable",
      "type": "function"
    }
  ],
  "bytecode": "0x608060405234801561001057600080fd5b50610451806100206000396000f3fe608060405234801561001057600080fd5b50600436106100365760003560e01c80634420e4861461003b5780638c13bc5514610050575b600080fd5b61004e610049366004610280565b610063565b005b61004e61005e3660046102a2565b6100a2565b6040516001600160a01b03821681527feeda149c76076b34d4b9d8896c2f7efc0d33d1c7b53ea3c5db490d64613f603a9060200160405180910390a150565b60405163031b367760e01b815233600482015283906001600160a01b0382169063031b36779060240160206040518083038186803b1580156100e357600080fd5b505afa1580156100f7573d6000803e3d6000fd5b505050506040513d601f19601f8201168201806040525081019061011b919061036d565b61015f5760405162461bcd60e51b815260206004820152601060248201526f26bab9ba103132903090333ab73232b960811b60448201526064015b60405180910390fd5b6040516371c5ecb160e01b8152600481018490526001600160a01b038216906371c5ecb19060240160206040518083038186803b15801561019f57600080fd5b505afa1580156101b3573d6000803e3d6000fd5b505050506040513d601f19601f820116820180604052508101906101d7919061038f565b61021c5760405162461bcd60e51b8152602060048201526016602482015275151c985b98da1948191bd95cc81b9bdd08195e1a5cdd60521b6044820152606401610156565b836001600160a01b03167e1639fbd6d48ab2442468d66f3720fbe486b433772455eeb8b4265194a6d19d84846040516102569291906103a8565b60405180910390a250505050565b80356001600160a01b038116811461027b57600080fd5b919050565b60006020828403121561029257600080fd5b61029b82610264565b9392505050565b6000806000606084860312156102b757600080fd5b6102c084610264565b925060208401359150604084013567ffffffffffffffff808211156102e457600080fd5b818601915086601f8301126102f857600080fd5b81358181111561030a5761030a610405565b604051601f8201601f19908116603f0116810190838211818310171561033257610332610405565b8160405282815289602084870101111561034b57600080fd5b8260208601602083013760006020848301015280955050505050509250925092565b60006020828403121561037f57600080fd5b8151801515811461029b57600080fd5b6000602082840312156103a157600080fd5b5051919050565b82815260006020604081840152835180604085015260005b818110156103dc578581018301518582016060015282016103c0565b818111156103ee576000606083870101525b50601f01601f191692909201606001949350505050565b634e487b7160e01b600052604160045260246000fdfea26469706673582212201677a8dd7cc6508f9f32d1a4df876ea9496c5f97153e514d094fca5ca47be34a64736f6c63430008070033",
  "linkReferences": {},
  "deployedLinkReferences": {}
}