{
  "_format": "hh-sol-artifact-1",
  "contractName": "MerkleDrop",
  "sourceName": "contracts/MerkleDrop.sol",
  "abi": [
    {
      "inputs": [
        {
          "internalType": "contract IERC20",
          "name": "_token",
          "type": "address"
        }
      ],
      "stateMutability": "nonpayable",
      "type": "constructor"
    },
    {
      "anonymous": false,
      "inputs": [
        {
          "indexed": false,
          "internalType": "address",
          "name": "claimant",
          "type": "address"
        },
        {
          "indexed": false,
          "internalType": "uint256",
          "name": "tranche",
          "type": "uint256"
        },
        {
          "indexed": false,
          "internalType": "uint256",
          "name": "balance",
          "type": "uint256"
        }
      ],
      "name": "Claimed",
      "type": "event"
    },
    {
      "anonymous": false,
      "inputs": [
        {
          "indexed": true,
          "internalType": "address",
          "name": "_address",
          "type": "address"
        }
      ],
      "name": "FunderAdded",
      "type": "event"
    },
    {
      "anonymous": false,
      "inputs": [
        {
          "indexed": true,
          "internalType": "address",
          "name": "_address",
          "type": "address"
        }
      ],
      "name": "FunderRemoved",
      "type": "event"
    },
    {
      "anonymous": false,
      "inputs": [
        {
          "indexed": true,
          "internalType": "address",
          "name": "previousOwner",
          "type": "address"
        },
        {
          "indexed": true,
          "internalType": "address",
          "name": "newOwner",
          "type": "address"
        }
      ],
      "name": "OwnershipTransferred",
      "type": "event"
    },
    {
      "anonymous": false,
      "inputs": [
        {
          "indexed": false,
          "internalType": "uint256",
          "name": "tranche",
          "type": "uint256"
        },
        {
          "indexed": false,
          "internalType": "bytes32",
          "name": "merkleRoot",
          "type": "bytes32"
        },
        {
          "indexed": false,
          "internalType": "uint256",
          "name": "totalAmount",
          "type": "uint256"
        },
        {
          "indexed": false,
          "internalType": "string",
          "name": "uri",
          "type": "string"
        }
      ],
      "name": "TrancheAdded",
      "type": "event"
    },
    {
      "anonymous": false,
      "inputs": [
        {
          "indexed": false,
          "internalType": "uint256",
          "name": "tranche",
          "type": "uint256"
        }
      ],
      "name": "TrancheExpired",
      "type": "event"
    },
    {
      "inputs": [
        {
          "internalType": "address",
          "name": "_address",
          "type": "address"
        }
      ],
      "name": "addFunder",
      "outputs": [],
      "stateMutability": "nonpayable",
      "type": "function"
    },
    {
      "inputs": [
        {
          "internalType": "address",
          "name": "_claimer",
          "type": "address"
        },
        {
          "internalType": "uint256",
          "name": "_tranche",
          "type": "uint256"
        },
        {
          "internalType": "uint256",
          "name": "_balance",
          "type": "uint256"
        },
        {
          "internalType": "bytes32[]",
          "name": "_merkleProof",
          "type": "bytes32[]"
        }
      ],
      "name": "claimTranche",
      "outputs": [],
      "stateMutability": "nonpayable",
      "type": "function"
    },
    {
      "inputs": [
        {
          "internalType": "uint256",
          "name": "_trancheId",
          "type": "uint256"
        }
      ],
      "name": "expireTranche",
      "outputs": [],
      "stateMutability": "nonpayable",
      "type": "function"
    },
    {
      "inputs": [
        {
          "internalType": "address",
          "name": "",
          "type": "address"
        }
      ],
      "name": "funders",
      "outputs": [
        {
          "internalType": "bool",
          "name": "",
          "type": "bool"
        }
      ],
      "stateMutability": "view",
      "type": "function"
    },
    {
      "inputs": [
        {
          "internalType": "address",
          "name": "_user",
          "type": "address"
        },
        {
          "internalType": "uint256",
          "name": "_tranche",
          "type": "uint256"
        }
      ],
      "name": "hasClaimed",
      "outputs": [
        {
          "internalType": "bool",
          "name": "",
          "type": "bool"
        }
      ],
      "stateMutability": "view",
      "type": "function"
    },
    {
      "inputs": [
        {
          "internalType": "uint256",
          "name": "",
          "type": "uint256"
        }
      ],
      "name": "merkleRoots",
      "outputs": [
        {
          "internalType": "bytes32",
          "name": "",
          "type": "bytes32"
        }
      ],
      "stateMutability": "view",
      "type": "function"
    },
    {
      "inputs": [],
      "name": "owner",
      "outputs": [
        {
          "internalType": "address",
          "name": "",
          "type": "address"
        }
      ],
      "stateMutability": "view",
      "type": "function"
    },
    {
      "inputs": [
        {
          "internalType": "address",
          "name": "_address",
          "type": "address"
        }
      ],
      "name": "removeFunder",
      "outputs": [],
      "stateMutability": "nonpayable",
      "type": "function"
    },
    {
      "inputs": [],
      "name": "renounceOwnership",
      "outputs": [],
      "stateMutability": "nonpayable",
      "type": "function"
    },
    {
      "inputs": [
        {
          "internalType": "bytes32",
          "name": "_merkleRoot",
          "type": "bytes32"
        },
        {
          "internalType": "uint256",
          "name": "_totalAllocation",
          "type": "uint256"
        },
        {
          "internalType": "string",
          "name": "_uri",
          "type": "string"
        }
      ],
      "name": "seedNewAllocations",
      "outputs": [
        {
          "internalType": "uint256",
          "name": "trancheId",
          "type": "uint256"
        }
      ],
      "stateMutability": "nonpayable",
      "type": "function"
    },
    {
      "inputs": [],
      "name": "token",
      "outputs": [
        {
          "internalType": "contract IERC20",
          "name": "",
          "type": "address"
        }
      ],
      "stateMutability": "view",
      "type": "function"
    },
    {
      "inputs": [
        {
          "internalType": "address",
          "name": "newOwner",
          "type": "address"
        }
      ],
      "name": "transferOwnership",
      "outputs": [],
      "stateMutability": "nonpayable",
      "type": "function"
    },
    {
      "inputs": [
        {
          "internalType": "address",
          "name": "_claimer",
          "type": "address"
        },
        {
          "internalType": "uint256",
          "name": "_tranche",
          "type": "uint256"
        },
        {
          "internalType": "uint256",
          "name": "_balance",
          "type": "uint256"
        },
        {
          "internalType": "bytes32[]",
          "name": "_merkleProof",
          "type": "bytes32[]"
        }
      ],
      "name": "verifyClaim",
      "outputs": [
        {
          "internalType": "bool",
          "name": "valid",
          "type": "bool"
        }
      ],
      "stateMutability": "view",
      "type": "function"
    }
  ],
  "bytecode": "0x60a060405234801561001057600080fd5b5060405161171c38038061171c83398101604081905261002f91610085565b600080546001600160a01b031916339081178255604051909182917f8be0079c531659141344cd1fd0a4f28419497f9722a3daafe3b4186f6b6457e0908290a35060601b6001600160601b0319166080526100b5565b60006020828403121561009757600080fd5b81516001600160a01b03811681146100ae57600080fd5b9392505050565b60805160601c61163b6100e160003960008181610234015281816102ba0152610bba015261163b6000f3fe608060405234801561001057600080fd5b50600436106100ea5760003560e01c8063c63e8d1a1161008c578063dcd18dd411610066578063dcd18dd4146101f6578063eb0d07f514610209578063f2fde38b1461021c578063fc0c546a1461022f57600080fd5b8063c63e8d1a146101bd578063cd54e72c146101d0578063d5efd20a146101e357600080fd5b8063715018a6116100c8578063715018a61461015d57806371c5ecb1146101655780638da5cb5b14610185578063b2931096146101aa57600080fd5b8063031b3677146100ef5780630d083b8b146101275780631bbe9d8c14610148575b600080fd5b6101126100fd36600461116a565b60036020526000908152604090205460ff1681565b60405190151581526020015b60405180910390f35b61013a610135366004611344565b610256565b60405190815260200161011e565b61015b61015636600461116a565b61035c565b005b61015b610476565b61013a6101733660046113ec565b60016020526000908152604090205481565b6000546001600160a01b03165b6040516001600160a01b03909116815260200161011e565b6101126101b8366004611297565b6104ea565b61015b6101cb366004611185565b610515565b61015b6101de3660046112c1565b610664565b61015b6101f13660046113ec565b610680565b61015b61020436600461116a565b610720565b6101126102173660046112c1565b610843565b61015b61022a36600461116a565b61085a565b6101927f000000000000000000000000000000000000000000000000000000000000000081565b3360009081526003602052604081205460ff166102ad5760405162461bcd60e51b815260206004820152601060248201526f26bab9ba103132903090333ab73232b960811b60448201526064015b60405180910390fd5b6102e26001600160a01b037f000000000000000000000000000000000000000000000000000000000000000016333086610944565b6004549050836001600083815260200190815260200160002081905550600160046000828254610312919061150f565b90915550506040517ff6e75b5c35b99eecb5d5a2318e379f1bbd4a29b369a2775bc957defe2846eb5f9061034d908390879087908790611495565b60405180910390a19392505050565b6000546001600160a01b031633146103865760405162461bcd60e51b81526004016102a490611460565b6001600160a01b0381166103ce5760405162461bcd60e51b815260206004820152600f60248201526e41646472657373206973207a65726f60881b60448201526064016102a4565b6001600160a01b03811660009081526003602052604090205460ff161561042a5760405162461bcd60e51b815260206004820152601060248201526f20b63932b0b23c903090333ab73232b960811b60448201526064016102a4565b6001600160a01b038116600081815260036020526040808220805460ff19166001179055517f0c48d651d88968f843204baf13aa11cd1a590e611c6dcadc7ed4daab1f98462a9190a250565b6000546001600160a01b031633146104a05760405162461bcd60e51b81526004016102a490611460565b600080546040516001600160a01b03909116907f8be0079c531659141344cd1fd0a4f28419497f9722a3daafe3b4186f6b6457e0908390a3600080546001600160a01b0319169055565b6001600160a01b038216600090815260026020526040812061050c90836109af565b90505b92915050565b8251806105645760405162461bcd60e51b815260206004820152601860248201527f4d75737420636c61696d20736f6d65207472616e63686573000000000000000060448201526064016102a4565b8251811480156105745750815181145b6105b55760405162461bcd60e51b81526020600482015260126024820152714d69736d61746368696e6720696e7075747360701b60448201526064016102a4565b6000805b8281101561065157610618878783815181106105d7576105d76115d9565b60200260200101518784815181106105f1576105f16115d9565b602002602001015187858151811061060b5761060b6115d9565b6020026020010151610a22565b84818151811061062a5761062a6115d9565b60200260200101518261063d919061150f565b9150806106498161157e565b9150506105b9565b5061065c8682610ba7565b505050505050565b61067084848484610a22565b61067a8483610ba7565b50505050565b3360009081526003602052604090205460ff166106d25760405162461bcd60e51b815260206004820152601060248201526f26bab9ba103132903090333ab73232b960811b60448201526064016102a4565b60008181526001602052604080822091909155517fcc071cbd9ae50a4c78d1153b76bd2d46ba8d4c7662842718ec3de1d67a144daf906107159083815260200190565b60405180910390a150565b6000546001600160a01b0316331461074a5760405162461bcd60e51b81526004016102a490611460565b6001600160a01b0381166107925760405162461bcd60e51b815260206004820152600f60248201526e41646472657373206973207a65726f60881b60448201526064016102a4565b6001600160a01b03811660009081526003602052604090205460ff166107fa5760405162461bcd60e51b815260206004820152601760248201527f41646472657373206973206e6f7420612066756e64657200000000000000000060448201526064016102a4565b6001600160a01b038116600081815260036020526040808220805460ff19169055517f423b2da7eebe1997af6d3d8f0c00fd04de1d323a87cd69152dad613731eb23259190a250565b600061085185858585610c53565b95945050505050565b6000546001600160a01b031633146108845760405162461bcd60e51b81526004016102a490611460565b6001600160a01b0381166108e95760405162461bcd60e51b815260206004820152602660248201527f4f776e61626c653a206e6577206f776e657220697320746865207a65726f206160448201526564647265737360d01b60648201526084016102a4565b600080546040516001600160a01b03808516939216917f8be0079c531659141344cd1fd0a4f28419497f9722a3daafe3b4186f6b6457e091a3600080546001600160a01b0319166001600160a01b0392909216919091179055565b6040516001600160a01b038085166024830152831660448201526064810182905261067a9085906323b872dd60e01b906084015b60408051601f198184030181529190526020810180516001600160e01b03166001600160e01b031990931692909217909152610cbe565b6000806109be61010084611527565b845490915081106109d357600091505061050f565b60006109e161010085611599565b9050808560000183815481106109f9576109f96115d9565b9060005260206000200154901c600116600114610a17576000610851565b600195945050505050565b6004548310610a735760405162461bcd60e51b815260206004820152601f60248201527f5472616e6368652063616e6e6f7420626520696e20746865206675747572650060448201526064016102a4565b6001600160a01b0384166000908152600260205260409020610a9590846109af565b15610ae25760405162461bcd60e51b815260206004820152601b60248201527f416464726573732068617320616c726561647920636c61696d6564000000000060448201526064016102a4565b610aee84848484610c53565b610b335760405162461bcd60e51b815260206004820152601660248201527524b731b7b93932b1ba1036b2b935b63290383937b7b360511b60448201526064016102a4565b6001600160a01b0384166000908152600260205260409020610b5790846001610d95565b604080516001600160a01b0386168152602081018590529081018390527f987d620f307ff6b94d58743cb7a7509f24071586a77759b77c2d4e29f75a2f9a9060600160405180910390a150505050565b8015610be557610be16001600160a01b037f0000000000000000000000000000000000000000000000000000000000000000168383610e83565b5050565b60405162461bcd60e51b815260206004820152603d60248201527f4e6f2062616c616e636520776f756c64206265207472616e736665727265642060448201527f2d206e6f7420676f696e6720746f20776173746520796f75722067617300000060648201526084016102a4565b6040516bffffffffffffffffffffffff19606086901b166020820152603481018390526000908190605401604051602081830303815290604052805190602001209050610cb483600160008881526020019081526020016000205483610eb3565b9695505050505050565b6000610d13826040518060400160405280602081526020017f5361666545524332303a206c6f772d6c6576656c2063616c6c206661696c6564815250856001600160a01b0316610f649092919063ffffffff16565b805190915015610d905780806020019051810190610d319190611322565b610d905760405162461bcd60e51b815260206004820152602a60248201527f5361666545524332303a204552433230206f7065726174696f6e20646964206e6044820152691bdd081cdd58d8d9595960b21b60648201526084016102a4565b505050565b6000610da361010084611527565b84549091508110610dff578354600090610dbd908361153b565b610dc890600161150f565b905060005b81811015610dfc5785546001810187556000878152602081209091015580610df48161157e565b915050610dcd565b50505b6000610e0d61010085611599565b90506000816001901b199050600081876000018581548110610e3157610e316115d9565b90600052602060002001541690508285610e4c576000610e4f565b60015b60ff16901b9150818117876000018581548110610e6e57610e6e6115d9565b60009182526020909120015550505050505050565b6040516001600160a01b038316602482015260448101829052610d9090849063a9059cbb60e01b90606401610978565b600081815b8551811015610f57576000868281518110610ed557610ed56115d9565b60200260200101519050808311610f17576040805160208101859052908101829052606001604051602081830303815290604052805190602001209250610f44565b60408051602081018390529081018490526060016040516020818303038152906040528051906020012092505b5080610f4f8161157e565b915050610eb8565b50831490505b9392505050565b6060610f738484600085610f7b565b949350505050565b606082471015610fdc5760405162461bcd60e51b815260206004820152602660248201527f416464726573733a20696e73756666696369656e742062616c616e636520666f6044820152651c8818d85b1b60d21b60648201526084016102a4565b843b61102a5760405162461bcd60e51b815260206004820152601d60248201527f416464726573733a2063616c6c20746f206e6f6e2d636f6e747261637400000060448201526064016102a4565b600080866001600160a01b031685876040516110469190611431565b60006040518083038185875af1925050503d8060008114611083576040519150601f19603f3d011682016040523d82523d6000602084013e611088565b606091505b50915091506110988282866110a3565b979650505050505050565b606083156110b2575081610f5d565b8251156110c25782518084602001fd5b8160405162461bcd60e51b81526004016102a4919061144d565b80356001600160a01b03811681146110f357600080fd5b919050565b600082601f83011261110957600080fd5b8135602061111e611119836114eb565b6114ba565b80838252828201915082860187848660051b890101111561113e57600080fd5b60005b8581101561115d57813584529284019290840190600101611141565b5090979650505050505050565b60006020828403121561117c57600080fd5b61050c826110dc565b6000806000806080858703121561119b57600080fd5b6111a4856110dc565b935060208086013567ffffffffffffffff808211156111c257600080fd5b6111ce89838a016110f8565b955060408801359150808211156111e457600080fd5b6111f089838a016110f8565b9450606088013591508082111561120657600080fd5b818801915088601f83011261121a57600080fd5b8135611228611119826114eb565b8082825285820191508585018c878560051b880101111561124857600080fd5b60005b848110156112835781358681111561126257600080fd5b6112708f8a838b01016110f8565b855250928701929087019060010161124b565b505080965050505050505092959194509250565b600080604083850312156112aa57600080fd5b6112b3836110dc565b946020939093013593505050565b600080600080608085870312156112d757600080fd5b6112e0856110dc565b93506020850135925060408501359150606085013567ffffffffffffffff81111561130a57600080fd5b611316878288016110f8565b91505092959194509250565b60006020828403121561133457600080fd5b81518015158114610f5d57600080fd5b60008060006060848603121561135957600080fd5b833592506020808501359250604085013567ffffffffffffffff8082111561138057600080fd5b818701915087601f83011261139457600080fd5b8135818111156113a6576113a66115ef565b6113b8601f8201601f191685016114ba565b915080825288848285010111156113ce57600080fd5b80848401858401376000848284010152508093505050509250925092565b6000602082840312156113fe57600080fd5b5035919050565b6000815180845261141d816020860160208601611552565b601f01601f19169290920160200192915050565b60008251611443818460208701611552565b9190910192915050565b60208152600061050c6020830184611405565b6020808252818101527f4f776e61626c653a2063616c6c6572206973206e6f7420746865206f776e6572604082015260600190565b848152836020820152826040820152608060608201526000610cb46080830184611405565b604051601f8201601f1916810167ffffffffffffffff811182821017156114e3576114e36115ef565b604052919050565b600067ffffffffffffffff821115611505576115056115ef565b5060051b60200190565b60008219821115611522576115226115ad565b500190565b600082611536576115366115c3565b500490565b60008282101561154d5761154d6115ad565b500390565b60005b8381101561156d578181015183820152602001611555565b8381111561067a5750506000910152565b6000600019821415611592576115926115ad565b5060010190565b6000826115a8576115a86115c3565b500690565b634e487b7160e01b600052601160045260246000fd5b634e487b7160e01b600052601260045260246000fd5b634e487b7160e01b600052603260045260246000fd5b634e487b7160e01b600052604160045260246000fdfea2646970667358221220cb8ceb16d31c7902068bb8516095172de7ed27174cf1d8a03cd730808fb65b5764736f6c63430008070033",
  "linkReferences": {},
  "deployedLinkReferences": {}
}